{
  "_format": "hh3-artifact-1",
  "contractName": "TestnetUSDC",
  "sourceName": "contracts/test/TestnetUSDC.sol",
  "abi": [
    {
      "inputs": [],
      "stateMutability": "nonpayable",
      "type": "constructor"
    },
    {
      "inputs": [
        {
          "internalType": "address",
          "name": "spender",
          "type": "address"
        },
        {
          "internalType": "uint256",
          "name": "allowance",
          "type": "uint256"
        },
        {
          "internalType": "uint256",
          "name": "needed",
          "type": "uint256"
        }
      ],
      "name": "ERC20InsufficientAllowance",
      "type": "error"
    },
    {
      "inputs": [
        {
          "internalType": "address",
          "name": "sender",
          "type": "address"
        },
        {
          "internalType": "uint256",
          "name": "balance",
          "type": "uint256"
        },
        {
          "internalType": "uint256",
          "name": "needed",
          "type": "uint256"
        }
      ],
      "name": "ERC20InsufficientBalance",
      "type": "error"
    },
    {
      "inputs": [
        {
          "internalType": "address",
          "name": "approver",
          "type": "address"
        }
      ],
      "name": "ERC20InvalidApprover",
      "type": "error"
    },
    {
      "inputs": [
        {
          "internalType": "address",
          "name": "receiver",
          "type": "address"
        }
      ],
      "name": "ERC20InvalidReceiver",
      "type": "error"
    },
    {
      "inputs": [
        {
          "internalType": "address",
          "name": "sender",
          "type": "address"
        }
      ],
      "name": "ERC20InvalidSender",
      "type": "error"
    },
    {
      "inputs": [
        {
          "internalType": "address",
          "name": "spender",
          "type": "address"
        }
      ],
      "name": "ERC20InvalidSpender",
      "type": "error"
    },
    {
      "inputs": [
        {
          "internalType": "address",
          "name": "owner",
          "type": "address"
        }
      ],
      "name": "OwnableInvalidOwner",
      "type": "error"
    },
    {
      "inputs": [
        {
          "internalType": "address",
          "name": "account",
          "type": "address"
        }
      ],
      "name": "OwnableUnauthorizedAccount",
      "type": "error"
    },
    {
      "anonymous": false,
      "inputs": [
        {
          "indexed": true,
          "internalType": "address",
          "name": "owner",
          "type": "address"
        },
        {
          "indexed": true,
          "internalType": "address",
          "name": "spender",
          "type": "address"
        },
        {
          "indexed": false,
          "internalType": "uint256",
          "name": "value",
          "type": "uint256"
        }
      ],
      "name": "Approval",
      "type": "event"
    },
    {
      "anonymous": false,
      "inputs": [
        {
          "indexed": true,
          "internalType": "address",
          "name": "authorizer",
          "type": "address"
        },
        {
          "indexed": true,
          "internalType": "bytes32",
          "name": "nonce",
          "type": "bytes32"
        }
      ],
      "name": "AuthorizationCanceled",
      "type": "event"
    },
    {
      "anonymous": false,
      "inputs": [
        {
          "indexed": true,
          "internalType": "address",
          "name": "authorizer",
          "type": "address"
        },
        {
          "indexed": true,
          "internalType": "bytes32",
          "name": "nonce",
          "type": "bytes32"
        }
      ],
      "name": "AuthorizationUsed",
      "type": "event"
    },
    {
      "anonymous": false,
      "inputs": [
        {
          "indexed": true,
          "internalType": "address",
          "name": "previousOwner",
          "type": "address"
        },
        {
          "indexed": true,
          "internalType": "address",
          "name": "newOwner",
          "type": "address"
        }
      ],
      "name": "OwnershipTransferred",
      "type": "event"
    },
    {
      "anonymous": false,
      "inputs": [
        {
          "indexed": true,
          "internalType": "address",
          "name": "from",
          "type": "address"
        },
        {
          "indexed": true,
          "internalType": "address",
          "name": "to",
          "type": "address"
        },
        {
          "indexed": false,
          "internalType": "uint256",
          "name": "value",
          "type": "uint256"
        }
      ],
      "name": "Transfer",
      "type": "event"
    },
    {
      "inputs": [],
      "name": "CANCEL_AUTHORIZATION_TYPEHASH",
      "outputs": [
        {
          "internalType": "bytes32",
          "name": "",
          "type": "bytes32"
        }
      ],
      "stateMutability": "view",
      "type": "function"
    },
    {
      "inputs": [],
      "name": "DOMAIN_SEPARATOR",
      "outputs": [
        {
          "internalType": "bytes32",
          "name": "",
          "type": "bytes32"
        }
      ],
      "stateMutability": "view",
      "type": "function"
    },
    {
      "inputs": [],
      "name": "RECEIVE_WITH_AUTHORIZATION_TYPEHASH",
      "outputs": [
        {
          "internalType": "bytes32",
          "name": "",
          "type": "bytes32"
        }
      ],
      "stateMutability": "view",
      "type": "function"
    },
    {
      "inputs": [],
      "name": "TRANSFER_WITH_AUTHORIZATION_TYPEHASH",
      "outputs": [
        {
          "internalType": "bytes32",
          "name": "",
          "type": "bytes32"
        }
      ],
      "stateMutability": "view",
      "type": "function"
    },
    {
      "inputs": [
        {
          "internalType": "address",
          "name": "owner",
          "type": "address"
        },
        {
          "internalType": "address",
          "name": "spender",
          "type": "address"
        }
      ],
      "name": "allowance",
      "outputs": [
        {
          "internalType": "uint256",
          "name": "",
          "type": "uint256"
        }
      ],
      "stateMutability": "view",
      "type": "function"
    },
    {
      "inputs": [
        {
          "internalType": "address",
          "name": "spender",
          "type": "address"
        },
        {
          "internalType": "uint256",
          "name": "value",
          "type": "uint256"
        }
      ],
      "name": "approve",
      "outputs": [
        {
          "internalType": "bool",
          "name": "",
          "type": "bool"
        }
      ],
      "stateMutability": "nonpayable",
      "type": "function"
    },
    {
      "inputs": [
        {
          "internalType": "address",
          "name": "authorizer",
          "type": "address"
        },
        {
          "internalType": "bytes32",
          "name": "nonce",
          "type": "bytes32"
        }
      ],
      "name": "authorizationState",
      "outputs": [
        {
          "internalType": "bool",
          "name": "",
          "type": "bool"
        }
      ],
      "stateMutability": "view",
      "type": "function"
    },
    {
      "inputs": [
        {
          "internalType": "address",
          "name": "account",
          "type": "address"
        }
      ],
      "name": "balanceOf",
      "outputs": [
        {
          "internalType": "uint256",
          "name": "",
          "type": "uint256"
        }
      ],
      "stateMutability": "view",
      "type": "function"
    },
    {
      "inputs": [
        {
          "internalType": "address",
          "name": "authorizer",
          "type": "address"
        },
        {
          "internalType": "bytes32",
          "name": "nonce",
          "type": "bytes32"
        },
        {
          "internalType": "uint8",
          "name": "v",
          "type": "uint8"
        },
        {
          "internalType": "bytes32",
          "name": "r",
          "type": "bytes32"
        },
        {
          "internalType": "bytes32",
          "name": "s",
          "type": "bytes32"
        }
      ],
      "name": "cancelAuthorization",
      "outputs": [],
      "stateMutability": "nonpayable",
      "type": "function"
    },
    {
      "inputs": [],
      "name": "decimals",
      "outputs": [
        {
          "internalType": "uint8",
          "name": "",
          "type": "uint8"
        }
      ],
      "stateMutability": "pure",
      "type": "function"
    },
    {
      "inputs": [],
      "name": "name",
      "outputs": [
        {
          "internalType": "string",
          "name": "",
          "type": "string"
        }
      ],
      "stateMutability": "view",
      "type": "function"
    },
    {
      "inputs": [],
      "name": "owner",
      "outputs": [
        {
          "internalType": "address",
          "name": "",
          "type": "address"
        }
      ],
      "stateMutability": "view",
      "type": "function"
    },
    {
      "inputs": [
        {
          "internalType": "address",
          "name": "from",
          "type": "address"
        },
        {
          "internalType": "address",
          "name": "to",
          "type": "address"
        },
        {
          "internalType": "uint256",
          "name": "value",
          "type": "uint256"
        },
        {
          "internalType": "uint256",
          "name": "validAfter",
          "type": "uint256"
        },
        {
          "internalType": "uint256",
          "name": "validBefore",
          "type": "uint256"
        },
        {
          "internalType": "bytes32",
          "name": "nonce",
          "type": "bytes32"
        },
        {
          "internalType": "uint8",
          "name": "v",
          "type": "uint8"
        },
        {
          "internalType": "bytes32",
          "name": "r",
          "type": "bytes32"
        },
        {
          "internalType": "bytes32",
          "name": "s",
          "type": "bytes32"
        }
      ],
      "name": "receiveWithAuthorization",
      "outputs": [],
      "stateMutability": "nonpayable",
      "type": "function"
    },
    {
      "inputs": [],
      "name": "renounceOwnership",
      "outputs": [],
      "stateMutability": "nonpayable",
      "type": "function"
    },
    {
      "inputs": [],
      "name": "symbol",
      "outputs": [
        {
          "internalType": "string",
          "name": "",
          "type": "string"
        }
      ],
      "stateMutability": "view",
      "type": "function"
    },
    {
      "inputs": [],
      "name": "totalSupply",
      "outputs": [
        {
          "internalType": "uint256",
          "name": "",
          "type": "uint256"
        }
      ],
      "stateMutability": "view",
      "type": "function"
    },
    {
      "inputs": [
        {
          "internalType": "address",
          "name": "to",
          "type": "address"
        },
        {
          "internalType": "uint256",
          "name": "value",
          "type": "uint256"
        }
      ],
      "name": "transfer",
      "outputs": [
        {
          "internalType": "bool",
          "name": "",
          "type": "bool"
        }
      ],
      "stateMutability": "nonpayable",
      "type": "function"
    },
    {
      "inputs": [
        {
          "internalType": "address",
          "name": "from",
          "type": "address"
        },
        {
          "internalType": "address",
          "name": "to",
          "type": "address"
        },
        {
          "internalType": "uint256",
          "name": "value",
          "type": "uint256"
        }
      ],
      "name": "transferFrom",
      "outputs": [
        {
          "internalType": "bool",
          "name": "",
          "type": "bool"
        }
      ],
      "stateMutability": "nonpayable",
      "type": "function"
    },
    {
      "inputs": [
        {
          "internalType": "address",
          "name": "newOwner",
          "type": "address"
        }
      ],
      "name": "transferOwnership",
      "outputs": [],
      "stateMutability": "nonpayable",
      "type": "function"
    },
    {
      "inputs": [
        {
          "internalType": "address",
          "name": "from",
          "type": "address"
        },
        {
          "internalType": "address",
          "name": "to",
          "type": "address"
        },
        {
          "internalType": "uint256",
          "name": "value",
          "type": "uint256"
        },
        {
          "internalType": "uint256",
          "name": "validAfter",
          "type": "uint256"
        },
        {
          "internalType": "uint256",
          "name": "validBefore",
          "type": "uint256"
        },
        {
          "internalType": "bytes32",
          "name": "nonce",
          "type": "bytes32"
        },
        {
          "internalType": "uint8",
          "name": "v",
          "type": "uint8"
        },
        {
          "internalType": "bytes32",
          "name": "r",
          "type": "bytes32"
        },
        {
          "internalType": "bytes32",
          "name": "s",
          "type": "bytes32"
        }
      ],
      "name": "transferWithAuthorization",
      "outputs": [],
      "stateMutability": "nonpayable",
      "type": "function"
    },
    {
      "inputs": [],
      "name": "version",
      "outputs": [
        {
          "internalType": "string",
          "name": "",
          "type": "string"
        }
      ],
      "stateMutability": "pure",
      "type": "function"
    }
  ],
  "bytecode": "0x6080604052346104565760405161001760408261045a565b600c81526b546573746e6574205553444360a01b602082015260405161003e60408261045a565b6005815264545553444360d81b602082015233156104435760018054336001600160a01b0319821681179092556001600160a01b03167f8be0079c531659141344cd1fd0a4f28419497f9722a3daafe3b4186f6b6457e05f80a381516001600160401b03811161037357600554600181811c91168015610439575b602082101461035557601f81116103f3575b50602092601f821160011461039257928192935f92610387575b50508160011b915f199060031b1c1916176005555b80516001600160401b03811161037357600654600181811c91168015610369575b602082101461035557601f81116102f2575b50602091601f8211600114610292579181925f92610287575b50508160011b915f199060031b1c1916176006555b60405161016960408261045a565b600c815260208101906b546573746e6574205553444360a01b82526040519161019360408461045a565b600183526020830191601960f91b8352519020915190206040519060208201927f8b73c3c69bb8fe3d512ecc4cf759cc79239f7b179b0ffacaa9a75d522b39400f8452604083015260608201524660808201523060a082015260a081526101fb60c08261045a565b5190205f5560045466038d7ea4c68000810180911161027357600455335f52600260205260405f2066038d7ea4c68000815401905560405166038d7ea4c6800081525f7fddf252ad1be2c89b69c2b068fc378daa952ba7f163c4a11628f55a4df523b3ef60203393a3604051610fd8908161047e8239f35b634e487b7160e01b5f52601160045260245ffd5b015190505f80610146565b601f1982169260065f52805f20915f5b8581106102da575083600195106102c2575b505050811b0160065561015b565b01515f1960f88460031b161c191690555f80806102b4565b919260206001819286850151815501940192016102a2565b60065f527ff652222313e28459528d920b65115c16c04f3efc82aaedc97be59f3f377c0d3f601f830160051c8101916020841061034b575b601f0160051c01905b818110610340575061012d565b5f8155600101610333565b909150819061032a565b634e487b7160e01b5f52602260045260245ffd5b90607f169061011b565b634e487b7160e01b5f52604160045260245ffd5b015190505f806100e5565b601f1982169360055f52805f20915f5b8681106103db57508360019596106103c3575b505050811b016005556100fa565b01515f1960f88460031b161c191690555f80806103b5565b919260206001819286850151815501940192016103a2565b60055f5260205f20601f830160051c8101916020841061042f575b601f0160051c01905b81811061042457506100cb565b5f8155600101610417565b909150819061040e565b90607f16906100b9565b631e4fbdf760e01b5f525f60045260245ffd5b5f80fd5b601f909101601f19168101906001600160401b038211908210176103735760405256fe6080806040526004361015610012575f80fd5b5f3560e01c90816306fdde031461099257508063095ea7b31461091057806318160ddd146108f357806323b872dd14610814578063313ce567146107f95780633644e515146107dd57806354fd4d501461077d5780635a049a701461069157806370a0823114610659578063715018a6146105fe5780637f2eecc3146105c45780638da5cb5b1461059c57806395d89b4114610498578063a0cc6a681461045e578063a9059cbb1461042d578063d9169487146103f3578063dd62ed3e146103a3578063e3ee160e146102ff578063e94a0102146102b6578063ef55bec61461018d5763f2fde38b14610103575f80fd5b346101895760203660031901126101895761011c610a74565b610124610c2c565b6001600160a01b0316801561017657600180546001600160a01b0319811683179091556001600160a01b03167f8be0079c531659141344cd1fd0a4f28419497f9722a3daafe3b4186f6b6457e05f80a3005b631e4fbdf760e01b5f525f60045260245ffd5b5f80fd5b346101895761019b36610aa0565b9497959695949390916001600160a01b03871691338303610263578961025c9661025695836101d261024f956102619f8b8e610e88565b604051937fd099cc98ef71107a616c4f0f941f04c322d8e254fe26b3c6668db87aae413de8602086015260018060a01b038c169788604087015260608601528d608086015260a085015260c08401528760e084015261023e61010084800301601f198101855284610afe565b5f546001600160a01b039590610cd6565b1614610be0565b82610f50565b610b20565b005b60405162461bcd60e51b815260206004820152602560248201527f46696174546f6b656e56323a2063616c6c6572206d7573742062652074686520604482015264706179656560d81b6064820152608490fd5b34610189576040366003190112610189576001600160a01b036102d7610a74565b165f52600860205260405f206024355f52602052602060ff60405f2054166040519015158152f35b346101895761026161025c61024f61025661031936610aa0565b906103318587868c9d9a9f9c9e979b9e989698610e88565b604080517f7c7c6cdb67a18743f49ec6fa9b35f50d52ed05cbed4cc592e13b44501c1a226760208201526001600160a01b038c81169282018390528d166060820152608081018e905260a081019790975260c087019390935260e0808701899052865291949161023e61010084610afe565b34610189576040366003190112610189576103bc610a74565b6103c4610a8a565b6001600160a01b039182165f908152600360209081526040808320949093168252928352819020549051908152f35b34610189575f3660031901126101895760206040517f158b0a9edf7a828aad02f63cd515c68ef2f50ba807396f6d12842833a15974298152f35b3461018957604036600319011261018957610453610449610a74565b6024359033610b20565b602060405160018152f35b34610189575f3660031901126101895760206040517f7c7c6cdb67a18743f49ec6fa9b35f50d52ed05cbed4cc592e13b44501c1a22678152f35b34610189575f366003190112610189576040515f6006548060011c90600181168015610592575b60208310811461057e5782855290811561055a57506001146104fc575b6104f8836104ec81850382610afe565b60405191829182610a4a565b0390f35b91905060065f527ff652222313e28459528d920b65115c16c04f3efc82aaedc97be59f3f377c0d3f915f905b808210610540575090915081016020016104ec6104dc565b919260018160209254838588010152019101909291610528565b60ff191660208086019190915291151560051b840190910191506104ec90506104dc565b634e487b7160e01b5f52602260045260245ffd5b91607f16916104bf565b34610189575f366003190112610189576001546040516001600160a01b039091168152602090f35b34610189575f3660031901126101895760206040517fd099cc98ef71107a616c4f0f941f04c322d8e254fe26b3c6668db87aae413de88152f35b34610189575f36600319011261018957610616610c2c565b600180546001600160a01b031981169091555f906001600160a01b03167f8be0079c531659141344cd1fd0a4f28419497f9722a3daafe3b4186f6b6457e08280a3005b34610189576020366003190112610189576001600160a01b0361067a610a74565b165f526002602052602060405f2054604051908152f35b346101895760a0366003190112610189576106aa610a74565b6024359060443560ff811681036101895781610736916106cd8561024f95610c53565b604051917f158b0a9edf7a828aad02f63cd515c68ef2f50ba807396f6d12842833a1597429602084015260018060a01b03169382856040819501528660608201526060815261071d608082610afe565b5f546001600160a01b0393608435916064359190610cd6565b805f52600860205260405f20825f5260205260405f20600160ff198254161790557f1cdd46ff242716cdaa72d159d339a485b3438398348d68f09d7c8c0a59353d815f80a3005b34610189575f36600319011261018957604051604081019080821067ffffffffffffffff8311176107c9576104f89160405260018152601960f91b602082015260405191829182610a4a565b634e487b7160e01b5f52604160045260245ffd5b34610189575f3660031901126101895760205f54604051908152f35b34610189575f36600319011261018957602060405160068152f35b346101895760603660031901126101895761082d610a74565b610835610a8a565b6001600160a01b0382165f818152600360209081526040808320338452909152902054909260443592915f198110610873575b506104539350610b20565b8381106108d85784156108c55733156108b257610453945f52600360205260405f2060018060a01b0333165f526020528360405f209103905584610868565b634a1406b160e11b5f525f60045260245ffd5b63e602df0560e01b5f525f60045260245ffd5b8390637dc7a0d960e11b5f523360045260245260445260645ffd5b34610189575f366003190112610189576020600454604051908152f35b3461018957604036600319011261018957610929610a74565b6024359033156108c5576001600160a01b03169081156108b257335f52600360205260405f20825f526020528060405f20556040519081527f8c5be1e5ebec7d5bd14f71427d1e84f3dd0314c0f7b2291e5b200ac8c7c3b92560203392a3602060405160018152f35b34610189575f366003190112610189575f6005548060011c90600181168015610a40575b60208310811461057e5782855290811561055a57506001146109e2576104f8836104ec81850382610afe565b91905060055f527f036b6384b5eca791c62761152d0c79bb0604c104a5fb6f4eb0703f3154bb3db0915f905b808210610a26575090915081016020016104ec6104dc565b919260018160209254838588010152019101909291610a0e565b91607f16916109b6565b602060409281835280519182918282860152018484015e5f828201840152601f01601f1916010190565b600435906001600160a01b038216820361018957565b602435906001600160a01b038216820361018957565b610120906003190112610189576004356001600160a01b038116810361018957906024356001600160a01b0381168103610189579060443590606435906084359060a4359060c43560ff81168103610189579060e435906101043590565b90601f8019910116810190811067ffffffffffffffff8211176107c957604052565b6001600160a01b0316908115610bcd576001600160a01b0316918215610bba57815f52600260205260405f2054818110610ba157817fddf252ad1be2c89b69c2b068fc378daa952ba7f163c4a11628f55a4df523b3ef92602092855f52600284520360405f2055845f526002825260405f20818154019055604051908152a3565b8263391434e360e21b5f5260045260245260445260645ffd5b63ec442f0560e01b5f525f60045260245ffd5b634b637e8f60e11b5f525f60045260245ffd5b15610be757565b60405162461bcd60e51b815260206004820152601e60248201527f46696174546f6b656e56323a20696e76616c6964207369676e617475726500006044820152606490fd5b6001546001600160a01b03163303610c4057565b63118cdaa760e01b5f523360045260245ffd5b60018060a01b03165f52600860205260405f20905f5260205260ff60405f205416610c7a57565b60405162461bcd60e51b815260206004820152602e60248201527f46696174546f6b656e56323a20617574686f72697a6174696f6e20697320757360448201526d1959081bdc8818d85b98d95b195960921b6064820152608490fd5b909192936020815191012060405190602082019261190160f01b84526022830152604282015260428152610d0b606282610afe565b519020907f7fffffffffffffffffffffffffffffff5d576e7357a4501ddfe92f46681b20a08411610e345760ff1690601b82141580610e29575b610dd5576020935f93608093604051938452868401526040830152606082015282805260015afa15610dca575f516001600160a01b03811615610d855790565b60405162461bcd60e51b815260206004820152601c60248201527f45435265636f7665723a20696e76616c6964207369676e6174757265000000006044820152606490fd5b6040513d5f823e3d90fd5b60405162461bcd60e51b815260206004820152602660248201527f45435265636f7665723a20696e76616c6964207369676e6174757265202776276044820152652076616c756560d01b6064820152608490fd5b50601c821415610d45565b60405162461bcd60e51b815260206004820152602660248201527f45435265636f7665723a20696e76616c6964207369676e6174757265202773276044820152652076616c756560d01b6064820152608490fd5b929091421115610ef757421015610ea457610ea291610c53565b565b60405162461bcd60e51b815260206004820152602560248201527f46696174546f6b656e56323a20617574686f72697a6174696f6e2069732065786044820152641c1a5c995960da1b6064820152608490fd5b60405162461bcd60e51b815260206004820152602b60248201527f46696174546f6b656e56323a20617574686f72697a6174696f6e206973206e6f60448201526a1d081e595d081d985b1a5960aa1b6064820152608490fd5b6001600160a01b03165f8181526008602090815260408083208584529091528120805460ff191660011790557f98de503528ee59b575ef0c0a2576a82497bfc029a5685b209e9ec333479b10a59080a356fea2646970667358221220ac3d99506d135897938a0c42639320c56ac4d5c8de191529b0007621a05edaa464736f6c634300081e0033",
  "linkReferences": {},
  "deployedLinkReferences": {},
  "immutableReferences": {},
  "inputSourceName": "project/contracts/test/TestnetUSDC.sol",
  "buildInfoId": "solc-0_8_30-a34be3a374f6c35c0b1a9ed23f173c1b0dd1f3fe"
}